0                F.K032001K 2019030900000001                                                                                                                                                                                                                                                                                                                                                                                                                                                                                                                                                                                                                                                                                                                                                                                                                                                                                                                                                                                                                                                                                                                                                                                                   F
1F 000000000001911BANCO DO BRASIL SA                                                                                                                                    DIRECAO GERAL                                          022005110300                                                                                                                                2038196608016422100QUADRA              SAUN QUADRA 5 LOTE B TORRES I, II E III                     SN    ANDAR 1 A 16              SALA  101 A 1601          ANDAR 1 A 16              SALA  101 A 1601          ANDAR 1 A 16              SALA  101 A 1601          ASA NORTE                                         70040912DF9701BRASILIA                                          61  34939002            61  34931040SECEX@BB.COM.BR                                                                                                    10060000000000000500000000000000000N                                                                                                                                                                                                                                                                                  F
2F 000000000001912MARCIO HAMILTON FERREIRA                                                                                                                              000***923641**100000020101117767SUICA                                                                 ***000000**CPF INVALIDO                                                00                                                                                                                                                                                                                                                                                                                                                                                                                                                                                                                                                                                                                                                                                                                                                                                                                                                                                        F
2F 000000000001912NILSON MARTINIANO MOREIRA                                                                                                                             000***491386**100000020101117767SUICA                                                                 ***000000**CPF INVALIDO                                                00                                                                                                                                                                                                                                                                                                                                                                                                                                                                                                                                                                                                                                                                                                                                                                                                                                                                                        F
2F 000000000001912WALTER MALIENI JUNIOR                                                                                                                                 000***718468**100000020101117767SUICA                                                                 ***000000**CPF INVALIDO                                                00                                                                                                                                                                                                                                                                                                                                                                                                                                                                                                                                                                                                                                                                                                                                                                                                                                                                                        F
2F 000000000001912ADRIANO MEIRA RICCI                                                                                                                                   000***550741**100000020120327767SUICA                                                                 ***000000**CPF INVALIDO                                                00                                                                                                                                                                                                                                                                                                                                                                                                                                                                                                                                                                                                                                                                                                                                                                                                                                                                                        F
2F 000000000001912CARLOS ALBERTO ARAUJO NETTO                                                                                                                           000***415907**100000020120327767SUICA                                                                 ***000000**CPF INVALIDO                                                00                                                                                                                                                                                                                                                                                                                                                                                                                                                                                                                                                                                                                                                                                                                                                                                                                                                                                        F
2F 000000000001912ANTONIO MAURICIO MAURANO                                                                                                                              000***022878**100000020120327767SUICA                                                                 ***000000**CPF INVALIDO                                                00                                                                                                                                                                                                                                                                                                                                                                                                                                                                                                                                                                                                                                                                                                                                                                                                                                                                                        F
2F 000000000001912MARCELO AUGUSTO DUTRA LABUTO                                                                                                                          000***238081**160000020120327767SUICA                                                                 ***000000**CPF INVALIDO                                                00                                                                                                                                                                                                                                                                                                                                                                                                                                                                                                                                                                                                                                                                                                                                                                                                                                                                                        F
2F 000000000001912LEONARDO SILVA DE LOYOLA REIS                                                                                                                         000***761707**100000020150528767SUICA                                                                 ***000000**CPF INVALIDO                                                00                                                                                                                                                                                                                                                                                                                                                                                                                                                                                                                                                                                                                                                                                                                                                                                                                                                                                        F
2F 000000000001912ROGERIO MAGNO PANCA                                                                                                                                   000***035618**100000020150528767SUICA                                                                 ***000000**CPF INVALIDO                                                00                                                                                                                                                                                                                                                                                                                                                                                                                                                                                                                                                                                                                                                                                                                                                                                                                                                                                        F
2F 000000000001912SIMAO LUIZ KOVALSKI                                                                                                                                   000***714970**100000020150528767SUICA                                                                 ***000000**CPF INVALIDO                                                00                                                                                                                                                                                                                                                                                                                                                                                                                                                                                                                                                                                                                                                                                                                                                                                                                                                                                        F
2F 000000000001912TARCISIO HUBNER                                                                                                                                       000***600309**100000020150528767SUICA                                                                 ***000000**CPF INVALIDO                                                00                                                                                                                                                                                                                                                                                                                                                                                                                                                                                                                                                                                                                                                                                                                                                                                                                                                                                        F
2F 000000000001912EDUARDO CESAR PASA                                                                                                                                    000***035920**100000020150630767SUICA                                                                 ***000000**CPF INVALIDO                                                00                                                                                                                                                                                                                                                                                                                                                                                                                                                                                                                                                                                                                                                                                                                                                                                                                                                                                        F
2F 000000000001912MARCIO LUIZ MORAL                                                                                                                                     000***859038**100000020150901767SUICA                                                                 ***000000**CPF INVALIDO                                                00                                                                                                                                                                                                                                                                                                                                                                                                                                                                                                                                                                                                                                                                                                                                                                                                                                                                                        F
2F 000000000001912JOSE EDUARDO MOREIRA BERGO                                                                                                                            000***045721**100000020161206767SUICA                                                                 ***000000**CPF INVALIDO                                                00                                                                                                                                                                                                                                                                                                                                                                                                                                                                                                                                                                                                                                                                                                                                                                                                                                                                                        F
2F 000000000001912ALEXANDRE ALVES DE SOUZA                                                                                                                              000***093057**100000020161206767SUICA                                                                 ***000000**CPF INVALIDO                                                00                                                                                                                                                                                                                                                                                                                                                                                                                                                                                                                                                                                                                                                                                                                                                                                                                                                                                        F
2F 000000000001912CICERO PRZENDSIUK                                                                                                                                     000***435159**100000020161206767SUICA                                                                 ***000000**CPF INVALIDO                                                00                                                                                                                                                                                                                                                                                                                                                                                                                                                                                                                                                                                                                                                                                                                                                                                                                                                                                        F
2F 000000000001912EDSON ROGERIO DA COSTA                                                                                                                                000***309260**100000020161206767SUICA                                                                 ***000000**CPF INVALIDO                                                00                                                                                                                                                                                                                                                                                                                                                                                                                                                                                                                                                                                                                                                                                                                                                                                                                                                                                        F
2F 000000000001912FABIANO MACANHAN FONTES                                                                                                                               000***816019**100000020161206767SUICA                                                                 ***000000**CPF INVALIDO                                                00                                                                                                                                                                                                                                                                                                                                                                                                                                                                                                                                                                                                                                                                                                                                                                                                                                                                                        F
2F 000000000001912FERNANDO FLORENCIO CAMPOS                                                                                                                             000***755588**100000020161206767SUICA                                                                 ***000000**CPF INVALIDO                                                00                                                                                                                                                                                                                                                                                                                                                                                                                                                                                                                                                                                                                                                                                                                                                                                                                                                                                        F
2F 000000000001912GUSTAVO DE SOUZA FOSSE                                                                                                                                000***160007**100000020161206767SUICA                                                                 ***000000**CPF INVALIDO                                                00                                                                                                                                                                                                                                                                                                                                                                                                                                                                                                                                                                                                                                                                                                                                                                                                                                                                                        F
2F 000000000001912MARCO TULIO DE OLIVEIRA MENDONCA                                                                                                                      000***403336**100000020161206767SUICA                                                                 ***000000**CPF INVALIDO                                                00                                                                                                                                                                                                                                                                                                                                                                                                                                                                                                                                                                                                                                                                                                                                                                                                                                                                                        F
2F 000000000001912MARVIO MELO FREITAS                                                                                                                                   000***983941**100000020161206767SUICA                                                                 ***000000**CPF INVALIDO                                                00                                                                                                                                                                                                                                                                                                                                                                                                                                                                                                                                                                                                                                                                                                                                                                                                                                                                                        F
2F 000000000001912REINALDO KAZUFUMI YOKOYAMA                                                                                                                            000***390059**100000020161206767SUICA                                                                 ***000000**CPF INVALIDO                                                00                                                                                                                                                                                                                                                                                                                                                                                                                                                                                                                                                                                                                                                                                                                                                                                                                                                                                        F
2F 000000000001912JOSE CAETANO DE ANDRADE MINCHILLO                                                                                                                     000***907166**100000020160621767SUICA                                                                 ***000000**CPF INVALIDO                                                00                                                                                                                                                                                                                                                                                                                                                                                                                                                                                                                                                                                                                                                                                                                                                                                                                                                                                        F
2F 000000000001912CARLOS RENATO BONETTI                                                                                                                                 000***198248**100000020160429767SUICA                                                                 ***000000**CPF INVALIDO                                                00                                                                                                                                                                                                                                                                                                                                                                                                                                                                                                                                                                                                                                                                                                                                                                                                                                                                                        F
2F 000000000001912MARCO ANTONIO ASCOLI MASTROENI                                                                                                                        000***198128**100000020161206767SUICA                                                                 ***000000**CPF INVALIDO                                                00                                                                                                                                                                                                                                                                                                                                                                                                                                                                                                                                                                                                                                                                                                                                                                                                                                                                                        F
2F 000000000001912JOSE EDUARDO PEREIRA FILHO                                                                                                                            000***916073**100000020170217767SUICA                                                                 ***000000**CPF INVALIDO                                                00                                                                                                                                                                                                                                                                                                                                                                                                                                                                                                                                                                                                                                                                                                                                                                                                                                                                                        F
2F 000000000001912MARCO TULIO MORAES DA COSTA                                                                                                                           000***677786**100000020170105767SUICA                                                                 ***000000**CPF INVALIDO                                                00                                                                                                                                                                                                                                                                                                                                                                                                                                                                                                                                                                                                                                                                                                                                                                                                                                                                                        F
2F 000000000001912JOAO PINTO RABELO JUNIOR                                                                                                                              000***347521**100000020160119767SUICA                                                                 ***000000**CPF INVALIDO                                                00                                                                                                                                                                                                                                                                                                                                                                                                                                                                                                                                                                                                                                                                                                                                                                                                                                                                                        F
2F 000000000001912CARLOS HAMILTON VASCONCELOS ARAUJO                                                                                                                    000***794793**100000020170105767SUICA                                                                 ***000000**CPF INVALIDO                                                00                                                                                                                                                                                                                                                                                                                                                                                                                                                                                                                                                                                                                                                                                                                                                                                                                                                                                        F
2F 000000000001912LUCINEIA POSSAR                                                                                                                                       000***309199**100000020171128767SUICA                                                                 ***000000**CPF INVALIDO                                                00                                                                                                                                                                                                                                                                                                                                                                                                                                                                                                                                                                                                                                                                                                                                                                                                                                                                                        F
2F 000000000001912JOSE RICARDO FAGONDE FORNI                                                                                                                            000***261501**100000020180410767SUICA                                                                 ***000000**CPF INVALIDO                                                00                                                                                                                                                                                                                                                                                                                                                                                                                                                                                                                                                                                                                                                                                                                                                                                                                                                                                        F
2F 000000000001912MARCOS RENATO COLTRI                                                                                                                                  000***653918**100000020180410767SUICA                                                                 ***000000**CPF INVALIDO                                                00                                                                                                                                                                                                                                                                                                                                                                                                                                                                                                                                                                                                                                                                                                                                                                                                                                                                                        F
2F 000000000001912CARLA NESI                                                                                                                                            000***295868**100000020180412767SUICA                                                                 ***000000**CPF INVALIDO                                                00                                                                                                                                                                                                                                                                                                                                                                                                                                                                                                                                                                                                                                                                                                                                                                                                                                                                                        F
2F 000000000001912BERNARDO DE AZEVEDO SILVA ROTHE                                                                                                                       000***890627**100000020180418767SUICA                                                                 ***000000**CPF INVALIDO                                                00                                                                                                                                                                                                                                                                                                                                                                                                                                                                                                                                                                                                                                                                                                                                                                                                                                                                                        F
2F 000000000001912ANTONIO GUSTAVO MATOS DO VALE                                                                                                                         000***370266**100000020170614767SUICA                                                                 ***000000**CPF INVALIDO                                                00                                                                                                                                                                                                                                                                                                                                                                                                                                                                                                                                                                                                                                                                                                                                                                                                                                                                                        F
6F 00000000000191649999900000000000000000000000000000000000000000000000000000000000000000000000000000000000000000000000000000000000000000000000000000000000000000000000000000000000000000000000000000000000000000000000000000000000000000000000000000000000000000000000000000000000000000000000000000000000000000000000000000000000000000000000000000000000000000000000000000000000000000000000000000000000000000000000000000000000000000000000000000000000000000000000000000000000000000000000000000000000000000000000000000000000000000000000000000000000000000000000000000000000000000000000000000000000000000000000000000000000000000000000000000000000000000000000000000000000000000000000000000000000000000000000000000000000000                                                                                                                                                                                                                                                                                                                                                                                                                                                                                                         F
1F 000000000002722BANCO DO BRASIL SA                                                                                                                                    MANAUS (AM)                                            022005110300                                                                                                                                2038197608136421200RUA                 GUILHERME MOREIRA                                           315                                                                                                                                                               CENTRO                                            69005300AM0255MANAUS                                                                                                                                                                                                   10000000000000000500000000000000000                        00000000                                                                                                                                                                                                                                                   F
1F 000000000003532BANCO DO BRASIL SA                                                                                                                                    PRESIDENTE VARGAS BELEM (PA)                           022005110300                                                                                                                                2038196608016422100                    AVEN PRESIDENTE VARGAS                                      248                                                                                                                                                               COMERCIO                                          66010900PA0427BELEM                                                                                                                                                                                                    10000000000000000500000000000000000                        00000000                                                                                                                                                                                                                                                   F
1F 000000000004342BANCO DO BRASIL SA                                                                                                                                    SANTOS - SANTOS (SP)                                   022005110300                                                                                                                                2038196608016422100RUA                 15 DE NOVEMBRO                                              195                                                                                                                                                               CENTRO                                            11010908SP7071SANTOS                                                                                                                                                                                                   10000000000000000500000000000000000                        00000000                                                                                                                                                                                                                                                   F
1F 000000000005152BANCO DO BRASIL SA                                                                                                                                    CAMPOS EST.UNIF.                                       022005110300                                                                                                                                2038196608016421200PRACA               DAS 4 JORNADAS                                              11                                                                                                                                                                CENTRO                                            28030002RJ5819CAMPOS DOS GOYTACAZES                                                                                                                                                                                    10000000000000000500000000000000000                        00000000                                                                                                                                                                                                                                                   F
1F 000000000006042BANCO DO BRASIL SA                                                                                                                                    SALVADOR (BA)                                          022005110300                                                                                                                                20381966080164221004A AVENIDA          CENTRO ADMINISTRATIVO DA BAHIA                              600                                                                                                                                                               CENTRO ADMINISTRATIVO DA BAHIA                    41745002BA3849SALVADOR                                          71  3362880371  3362895271  32420844AGE0006@BB.COM.BR                                                                                                  10000000000000000500000000000000000                        00000000                                                                                                                                                                                                                                                   F
1F 000000000007872BANCO DO BRASIL SA                                                                                                                                    RECIFE (PE)                                            022005110300                                                                                                                                2038196608016422100AVENIDA             RIO BRANCO                                                  240   ANDAR 1                                                                                                                                                     RECIFE                                            50030310PE2531RECIFE                                            81  3425743381  3425723381  34257520AGE0007@BB.COM.BR                                                                                                  10000000000000000500000000000000000                        00000000                                                                                                                                                                                                                                                   F
1F 000000000008682BANCO DO BRASIL SA                                                                                                                                    SETOR PUBLICO - FORTALEZA (CE)                         022005110300                                                                                                                                2038196608016422100AVENIDA             SANTOS DUMONT                                               2828  ANDAR 5                                                                                                                                                     ALDEOTA                                           60150162CE1389FORTALEZA                                         85  33660800            85  33660808AGE0008@BB.COM.BR                                                                                                  10000000000000000500000000000000000                        00000000                                                                                                                                                                                                                                                   F
1F 000000000009492BANCO DO BRASIL SA                                                                                                                                    PRACA TIRADENTES - CURITIBA PR                         022005110300                                                                                                                                2038196608016421200PRACA               TIRADENTES                                                  410                                                                                                                                                               CENTRO                                            80020100PR7535CURITIBA                                                                                                                                                                                                 10000000000000000500000000000000000                        00000000                                                                                                                                                                                                                                                   F
1F 000000000010822BANCO DO BRASIL SA                                                                                                                                    PORTO ALEGRE (RS)                                      022005110300                                                                                                                                2038196608016422100RUA                 URUGUAI                                                     185                                                                                                                                                               CENTRO                                            90010901RS8801PORTO ALEGRE                                                                                                                                                                                             10000000000000000500000000000000000                        00000000                                                                                                                                                                                                                                                   F
1F 000000000011632BANCO DO BRASIL SA                                                                                                                                    JOAO PESSOA (PB)                                       022005110300                                                                                                                                2038196608016421200PRACA               1817                                                        129                                                                                                                                                               CENTRO                                            58020388PB2051JOAO PESSOA                                                                                                                                                                                              10000000000000000500000000000000000                        00000000                                                                                                                                                                                                                                                   F
1F 000000000012442BANCO DO BRASIL SA                                                                                                                                    TRES CORACOES - TRES CORACOES (MG)                     022005110300                                                                                                                                2038196608016422100PRACA               ODILON RESENDE ANDRADE                                      76                                                                                                                                                                CENTRO                                            37410001MG5385TRES CORACOES                                                                                                                                                                                            10000000000000000500000000000000000                        00000000                                                                                                                                                                                                                                                   F
1F 000000000013252BANCO DO BRASIL SA                                                                                                                                    MACEIO (AL)                                            022005110300                                                                                                                                2038196608016421200RUA                 DO LIVRAMENTO                                               120                                                                                                                                                               CENTRO                                            57020913AL2785MACEIO                                                                                                                                                                                                   10000000000000000500000000000000000                        00000000                                                                                                                                                                                                                                                   F
1F 000000000014062BANCO DO BRASIL SA                                                                                                                                    CORUMBA                                                022005110300                                                                                                                                2038196608016421200RUA                 13 DE JUNHO                                                 914                                                                                                                                                               CENTRO                                            79331050MS9063CORUMBA                                                                                                                                                                                                  10000000000000000500000000000000000                        00000000                                                                                                                                                                                                                                                   F
1F 000000000015972BANCO DO BRASIL SA                                                                                                                                    UBERABA-EST.UNIF.                                      022005110300                                                                                                                                2038196608016422100AVENIDA             LEOPOLDINO DE OLIVEIRA                                      3635                                                                                                                                                              CENTRO                                            38010000MG5401UBERABA                                                                                                                                                                                                  10000000000000000500000000000000000                        00000000                                                                                                                                                                                                                                                   F
1F 000000000016782BANCO DO BRASIL SA                                                                                                                                    FLORIANOPOLIS (SC)                                     022005110300                                                                                                                                2038196608016422100PRACA               XV DE NOVEMBRO                                              321                                                                                                                                                               CENTRO                                            88010400SC8105FLORIANOPOLIS                                                                                                                                                                                            10000000000000000500000000000000000                        00000000                                                                                                                                                                                                                                                   F
1F 000000000017592BANCO DO BRASIL SA                                                                                                                                    ARACAJU (SE)                                           022005110300                                                                                                                                2038196608016421200PRACA               GENERAL VALADAO                                             377   TERREO, 1AND E 3AND                                                                                                                                         CENTRO                                            49010520SE3105ARACAJU                                           079 2121000             079 2118403                                                                                                                    10000000000000000500000000000000000                        00000000                                                                                                                                                                                                                                                   F
1F 000000000018302BANCO DO BRASIL SA                                                                                                                                    SAO PAULO (SP)                                         022005110300                                                                                                                                2038196608016421200RUA                 SAO BENTO                                                   483                                                                                                                                                               CENTRO                                            01011100SP7107SAO PAULO                                                                                                                                                                                                10000000000000000500000000000000000                        00000000                                                                                                                                                                                                                                                   F
1F 000000000019102BANCO DO BRASIL SA                                                                                                                                    ILHEUS(BA)                                             022005110300                                                                                                                                2038196608016422100RUA                 MARQUES DE PARANAGUA                                        112                                                                                                                                                               CENTRO                                            45653000BA3573ILHEUS                                            73  3234740073  3234741073  32347410AGE0019@BB.COM.BR                                                                                                  10000000000000000500000000000000000                        00000000                                                                                                                                                                                                                                                   F
1F 000000000020542BANCO DO BRASIL SA                                                                                                                                    SAO LUIS-EST.UNIF.                                     022005110300                                                                                                                                2038196608016421200AVENIDA             GOMES DE CASTRO                                             46                                                                                                                                                                CENTRO                                            65020230MA0921SAO LUIS                                                                                                                                                                                                 10000000000000000500000000000000000                        00000000                                                                                                                                                                                                                                                   F
1F 000000000021352BANCO DO BRASIL SA                                                                                                                                    VITORIA - ES                                           022005110300                                                                                                                                2038196608016421200PRACA               PIO XII                                                     30                                                                                                                                                                CENTRO                                            29010340ES5705VITORIA                                                                               AGE0021@BB.COM.BR                                                                                                  10000000000000000500000000000000000                        00000000                                                                                                                                                                                                                                                   F
1F 000000000022162BANCO DO BRASIL SA                                                                                                                                    COMERCIAL NATAL (RN)                                   022005110300                                                                                                                                2038196608016421200AVENIDA             RIO BRANCO                                                  510                                                                                                                                                               CIDADE ALTA                                       59025002RN1761NATAL                                                                                                                                                                                                    10000000000000000500000000000000000                        00000000                                                                                                                                                                                                                                                   F
1F 000000000023052BANCO DO BRASIL SA                                                                                                                                    PARNAIBA-EST.UNIF.                                     022005110300                                                                                                                                2038197309176421200PRACA               DA GRACA                                                    340                                                                                                                                                               CENTRO                                            64200120PI1153PARNAIBA                                                                                                                                                                                                 10000000000000000500000000000000000                        00000000                                                                                                                                                                                                                                                   F
1F 000000000024882BANCO DO BRASIL SA                                                                                                                                    JUIZ DE FORA EST.UNIF.                                 022005110300                                                                                                                                2038196608016421200RUA                 HALFELD                                                     770                                                                                                                                                               CENTRO                                            36010003MG4733JUIZ DE FORA                                                                                                                                                                                             10000000000000000500000000000000000                        00000000                                                                                                                                                                                                                                                   F
1F 000000000025692BANCO DO BRASIL SA                                                                                                                                    CATAGUASES EST.UNIF.                                   022005110300                                                                                                                                2038196608016422100RUA                 PAULINO FERNANDES                                           13                                                                                                                                                                CENTRO                                            36770024MG4305CATAGUASES                                                                                                                                                                                               10000000000000000500000000000000000                        00000000                                                                                                                                                                                                                                                   F
1F 000000000026402BANCO DO BRASIL SA                                                                                                                                                                                           022005110300                                                                                                                                2038196608016422100RUA                 MARECHAL DEODORO                                            250                                                                                                                                                               CENTRO                                            36800000MG4265CARANGOLA                                                                                                                                                                                                10000000000000000500000000000000000                        00000000                                                                                                                                                                                                                                                   F
1F 000000000027202BANCO DO BRASIL SA                                                                                                                                    JAU (SP)                                               022005110300                                                                                                                                2038196608016422100RUA                 AMARAL GURGEL                                               247                                                                                                                                                               CENTRO                                            17201010SP6607JAU                                                                                                                                                                                                      10000000000000000500000000000000000                        00000000                                                                                                                                                                                                                                                   F
1F 000000000028012BANCO DO BRASIL SA                                                                                                                                    RIBEIRAO PRETO-EST.UNIF.                               022005110300                                                                                                                                2038196608016421200RUA                 DUQUE DE CAXIAS                                             725                                                                                                                                                               CENTRO                                            14015020SP6969RIBEIRAO PRETO                                                                                                                                                                                           10000000000000000500000000000000000                        00000000                                                                                                                                                                                                                                                   F
1F 000000000029922BANCO DO BRASIL SA                                                                                                                                    PELOTAS-EST.UNIF.                                      022005110300                                                                                                                                2038196608016421200RUA                 LOBO DA COSTA                                               1315                                                                                                                                                              CENTRO                                            96010150RS8791PELOTAS                                                                                                                                                                                                  10000000000000000500000000000000000                        00000000                                                                                                                                                                                                                                                   F
1F 000000000030262BANCO DO BRASIL SA                                                                                                                                                                                           022005110300                                                                                                                                2038196608016421200RUA                 AUGUSTO RIBAS                                               555                                                                                                                                                               CENTRO                                            84010300PR7777PONTA GROSSA                                                                                                                                                                                             10000000000000000500000000000000000                        00000000                                                                                                                                                                                                                                                   F
1F 000000000031072BANCO DO BRASIL SA                                                                                                                                    BARRETOS - BARRETOS (SP)                               022005110300                                                                                                                                2038196608016422100RUA                 20                                                          554                                                                                                                                                               CENTRO                                            14780070SP6209BARRETOS                                                                                                                                                                                                 10000000000000000500000000000000000                        00000000                                                                                                                                                                                                                                                   F
1F 000000000032982BANCO DO BRASIL SA                                                                                                                                    VARGINHA EST.UNIF.                                     022005110300                                                                                                                                2038196608016421200PRACA               JOSE DE RESENDE PAIVA                                       18                                                                                                                                                                CENTRO                                            37066070MG5413VARGINHA                                                                                                                                                                                                 10000000000000000500000000000000000                        00000000                                                                                                                                                                                                                                                   F
1F 000000000033792BANCO DO BRASIL SA                                                                                                                                    BELO HORIZONTE CENTRO-EST.UNIF.                        022005110300                                                                                                                                2038196608016421200RUA                 RIO DE JANEIRO                                              750                                                                                                                                                               CENTRO                                            30160041MG4123BELO HORIZONTE                                                                                                                                                                                           10000000000000000500000000000000000                        00000000                                                                                                                                                                                                                                                   F
1F 000000000034502BANCO DO BRASIL SA                                                                                                                                    BAGE EST.UNIF.                                         022005110300                                                                                                                                2038196608016421200RUA                 GENERAL SAMPAIO                                             99                                                                                                                                                                CENTRO                                            96400370RS8531BAGE                                                                                                                                                                                                     10000000000000000500000000000000000                        00000000                                                                                                                                                                                                                                                   F
1F 000000000035302BANCO DO BRASIL SA                                                                                                                                    SANTANA DO LIVRAMENTO-EST.UNIF.                        022005110300                                                                                                                                2038196608016421200RUA                 DOS ANDRADAS                                                525                                                                                                                                                               CENTRO                                            97573001RS8845SANTANA DO LIVRAMENTO                                                                                                                                                                                    10000000000000000500000000000000000                        00000000                                                                                                                                                                                                                                                   F
1F 000000000036112BANCO DO BRASIL SA                                                                                                                                    MOSSORO EST UNIF                                       022005110300                                                                                                                                2038196608016421200PRACA               VIGARIO ANTONIO JOAQUIM                                     22                                                                                                                                                                CENTRO                                            59600520RN1759MOSSORO                                                                                                                                                                                                  10000000000000000500000000000000000                        00000000                                                                                                                                                                                                                                                   F
1F 000000000037002BANCO DO BRASIL SA                                                                                                                                    BAURU EST.UNIF.                                        022005110300                                                                                                                                2038196608016421200RUA                 PRIMEIRO DE AGOSTO                                          7-63                                                                                                                                                              CENTRO                                            17010010SP6219BAURU                                                                                                                                                                                                    10000000000000000500000000000000000                        00000000                                                                                                                                                                                                                                                   F
1F 000000000038832BANCO DO BRASIL SA                                                                                                                                    JOINVILLE EST.UNIF.                                    022005110300                                                                                                                                2038196608016422100RUA                 LUIZ NIEMEYER                                               54                                                                                                                                                                CENTRO                                            89201060SC8179JOINVILLE                                                                                                                                                                                                10000000000000000500000000000000000                        00000000                                                                                                                                                                                                                                                   F
1F 000000000039642BANCO DO BRASIL SA                                                                                                                                                                                           022005110300                                                                                                                                2038196608016421200RUA                 JOSE DE ALENCAR                                             S/N                                                                                                                                                               CENTRO                                            62400000CE1351CAMOCIM                                                                                                                                                                                                  10000000000000000500000000000000000                        00000000                                                                                                                                                                                                                                                   F
1F 000000000040062BANCO DO BRASIL SA                                                                                                                                                                                           022005110300                                                                                                                                2038196608016422100RUA                 DR J J SEABRA                                               1                                                                                                                                                                 CENTRO                                            44360000BA3879SAO FELIX                                                                                                                                                                                                10000000000000000500000000000000000                        00000000                                                                                                                                                                                                                                                   F
1F 000000000041892BANCO DO BRASIL SA                                                                                                                                    FEIRA DE SANTANA BA-EST UNIF                           022005110300                                                                                                                                2038196608016421200RUA                 CONSELHEIRO FRANCO                                          418                                                                                                                                                               CENTRO                                            44015900BA3515FEIRA DE SANTANA                                                                                                                                                                                         10000000000000000500000000000000000                        00000000                                                                                                                                                                                                                                                   F
1F 000000000042602BANCO DO BRASIL SA                                                                                                                                    CACHOEIRA DO SUL RS EST UNIF                           022005110300                                                                                                                                2038196608016421200RUA                 7 DE SETEMBRO                                               1279                                                                                                                                                              CENTRO                                            96508011RS8559CACHOEIRA DO SUL                                                                                                                                                                                         10000000000000000500000000000000000                        00000000                                                                                                                                                                                                                                                   F
1F 000000000043402BANCO DO BRASIL SA                                                                                                                                                                                           022005110300                                                                                                                                2038196608016421200RUA                 CEL JOAO VAZ                                                2                                                                                                                                                                 CENTRO                                            75780000GO9397IPAMERI                                                                                                                                                                                                  10000000000000000500000000000000000                        00000000                                                                                                                                                                                                                                                   F
1F 000000000044212BANCO DO BRASIL SA                                                                                                                                    TERESINA ( PI )                                        022005110300                                                                                                                                2038196608016421200AVENIDA             ALVARO MENDES                                               1313                                                                                                                                                              CENTRO                                            64000060PI1219TERESINA                                                                                                                                                                                                 10000000000000000500000000000000000                        00000000                                                                                                                                                                                                                                                   F
1F 000000000045022BANCO DO BRASIL SA                                                                                                                                    URUGUAIANA-EST.UNIF.                                   022005110300                                                                                                                                2038196608016421200RUA                 BENTO MARTINS                                               2609                                                                                                                                                              CENTRO                                            97510001RS8951URUGUAIANA                                                                                                                                                                                               10000000000000000500000000000000000                        00000000                                                                                                                                                                                                                                                   F
